:100000000C9434000C943E000C943E000C943E0082
:100010000C943E000C943E000C943E000C943E0068
:100020000C943E000C943E000C943E000C943E0058
:100030000C943E000C943E000C943E000C943E0048
:100040000C943E000C943E000C943E000C943E0038
:100050000C943E000C943E000C943E000C943E0028
:100060000C943E000C943E0011241FBECFEFD8E04C
:10007000DEBFCDBF0E9440000C946F000C940000C6
:1000800038983998409A419A8FEF84B920E931E045
:1000900010C02C9A80ED97E0F9013197F1F70197A4
:1000A000D9F72C9880ED97E0F9013197F1F7019796
:1000B000D9F7309BEECF10C02B9A80ED97E0F90175
:1000C0003197F1F70197D9F72B9880ED97E0F90177
:1000D0003197F1F70197D9F7319BEECFEACFF8943A
:0200E000FFCF50
:00000001FF
