:100000000C9434000C943E000C943E000C943E0082
:100010000C943E000C943E000C943E000C943E0068
:100020000C943E000C943E000C943E000C943E0058
:100030000C943E000C943E000C943E000C943E0048
:100040000C943E000C943E000C943E000C943E0038
:100050000C943E000C943E000C943E000C943E0028
:100060000C943E000C943E0011241FBECFEFD8E04C
:10007000DEBFCDBF0E9440000C9497000C9400009E
:100080003F98409A419A429A8FEF84B920E931E033
:1000900016C02C9A80ED97E0F9013197F1F701979E
:1000A000D9F72C9880ED97E0F9013197F1F7019796
:1000B000D9F701C02C98319BFDCF329BFBCF309BF1
:1000C000E8CF16C02B9A80ED97E0F9013197F1F750
:1000D0000197D9F72B9880ED97E0F9013197F1F767
:1000E0000197D9F701C02B98309BFDCF329BFBCFF6
:1000F000319BE8CF19C02B9A2C9A80ED97E0F9013B
:100100003197F1F70197D9F72B982C9880ED97E06C
:10011000F9013197F1F70197D9F702C02B982C9884
:10012000309BFCCF319BFACF329BE5CFC8CFF89400
:02013000FFCFFF
:00000001FF
